:020000040000FA
:1000000068400020A1040000A9040000AB04000027
:10001000AD040000AF040000B104000000000000C7
:10002000000000000000000000000000B304000019
:10003000B504000000000000B7040000B90400008F
:10004000BB040000BB040000BB040000BB040000B4
:10005000BB040000BB040000BB040000BB040000A4
:10006000BB040000BB040000BB040000BB04000094
:10007000BB040000BB040000BB040000BB04000084
:10008000BB040000BB040000BB040000BB04000074
:10009000BB040000BB040000BB040000BB04000064
:1000A000BB040000BB040000BB040000BB04000054
:1000B000BB040000BB0400000000000000000000C2
:1000C000BB040000BB040000BB040000BB04000034
:1000D000BB040000BB040000BB04000000000000E3
:1000E0000000000000000000000000000000000010
:1000F0000000000000000000000000000000000000
:1001000000000000000000000000000000000000EF
:1001100000000000000000000000000000000000DF
:1004000000F002F800F03CF80AA090E8000C8244EA
:100410008344AAF10107DA4501D100F031F8AFF2C7
:10042000090EBAE80F0013F0010F18BFFB1A43F0D2
:10043000010318476C0400008C040000103A24BF2C
:1004400078C878C1FAD8520724BF30C830C144BF39
:1004500004680C607047000000230024002500267B
:10046000103A28BF78C1FBD8520728BF30C148BF17
:100470000B6070471FB500F00DFA1FBD10B510BD21
:1004800000F031F81146FFF7F5FF00F001FA00F037
:100490004FF803B4FFF7F2FF03BC00F057F8000079
:1004A0000948804709480047FEE7FEE7FEE7FEE708
:1004B000FEE7FEE7FEE7FEE7FEE7FEE70448054944
:1004C000054A064B704700006D050000010400005E
:1004D000680000206840002068200020682000207C
:1004E000704770477047754600F02CF8AE4605001F
:1004F0006946534620F00700854618B020B5FFF73F
:10050000DDFFBDE820404FF000064FF000074FF040
:1005100000084FF0000B21F00701AC46ACE8C00921
:10052000ACE8C009ACE8C009ACE8C0098D4670472A
:1005300010B50446AFF300802046BDE81040FFF739
:10054000A8BF00000048704704000020014918209F
:10055000ABBEFEE7260002007047000001480249DA
:10056000086070470090D0030000002010B500F034
:10057000C3F810B157485849486700F0D5F828B17A
:1005800056480068C0F342305549086000F0F6F85C
:1005900028B15448006820F080705249086000F08B
:1005A00005F948B10020504908604FF08041C1F87A
:1005B00010014B49091F086000F022F918B103200F
:1005C00047496431086000F033F968B105204749B4
:1005D000086001204549783108600020434908310E
:1005E00008603F20091F086000F03AF9002855D044
:1005F0003F4800683F4908603D48001D0068091DEC
:1006000008603B4808300068091D086038480C3015
:100610000068091D0860364810300068091D086030
:10062000334814300068091D0860314818300068EC
:100630003049203108602E481C300068091D0860D0
:100640002B4820300068091D0860294824300068C4
:10065000091D0860264828300068091D08602448E4
:100660002C300068091D086021483030006821499D
:10067000403108601E4834300068091D08601C487D
:1006800038300068091D086019483C300068091DB1
:100690000860174840300068091D08601148743828
:1006A000006840F470000F497439086000BF00BF53
:1006B00000BFBFF34F8F00BF00BF00BF00BF00BF30
:1006C00000BFBFF36F8F00BF00BF00BFFFF746FF43
:1006D00010BD00000DF0ADBA00C00740440200108C
:1006E0003C050040FCED00E00C01004010560040CD
:1006F0000404001020C500400A48007806280ED1E6
:100700000848001D007800F00F0040B90548083087
:10071000007800F0F000302801D10120704700205F
:10072000FCE70000E00F00F013480078062820D115
:100730001148001D007800F00F00D0B90E480830B5
:10074000007800F0F000302801D1012070470A48FD
:100750000830007800F0F000402801D10120F5E7D2
:1007600005480830007800F0F000502801D1012041
:10077000ECE70020EAE70000E00F00F00A4800780C
:1007800006280ED10848001D007800F00F0040B97F
:1007900005480830007800F0F000302801D1012031
:1007A00070470020FCE70000E00F00F013480078DD
:1007B000062820D11148001D007800F00F00D0B9A4
:1007C0000E480830007800F0F000302801D10120F8
:1007D00070470A480830007800F0F000402801D146
:1007E0000120F5E705480830007800F0F0005028B7
:1007F00001D10120ECE70020EAE70000E00F00F063
:100800000A48007806280ED10848001D007800F03C
:100810000F0040B905480830007800F0F00030289B
:1008200001D1012070470020FCE70000E00F00F03C
:100830000A48007806280ED10848001D007800F00C
:100840000F0040B905480830007800F0F00030286B
:1008500001D1012070470020FCE70000E00F00F00C
:100860000A48007806280ED10848001D007800F0DC
:100870000F0040B905480830007800F0F00050281B
:1008800001D1012070470020FCE70000E00F00F0DC
:1008900000BFFEE74FF04070E1EE100A7047000025
:1008A000C008000000000020040000003C0400001C
:1008B000C408000004000020644000005804000048
:0408C0000090D003D1
:020000041000EA
:0412080000FFFFFFE5
:0400000500000401F2
:00000001FF
